:020000040800F2
:1000000000000220190200086902000869020008C5
:100010006902000869020008690200080000000087
:10002000000000000000000000000000690200085D
:100030006902000800000000690200086902000867
:1000400069020008690200086902000869020008E4
:1000500069020008690200086902000869020008D4
:1000600069020008690200086902000869020008C4
:1000700069020008690200086902000869020008B4
:1000800069020008690200086902000869020008A4
:100090006902000869020008690200086902000894
:1000A0006902000869020008690200086902000884
:1000B0006902000869020008690200086902000874
:1000C0006902000869020008690200086902000864
:1000D0006902000869020008690200086902000854
:1000E0006902000869020008690200086902000844
:1000F0006902000869020008690200086902000834
:100100006902000869020008690200086902000823
:100110006902000869020008690200086902000813
:100120006902000869020008690200086902000803
:1001300069020008000000000000000069020008D9
:1001400069020008690200086902000869020008E3
:1001500069020008690200086902000869020008D3
:1001600069020008690200086902000869020008C3
:100170006902000869020008690200080000000026
:1001800000000000690200080000000000000000FC
:100190006902000800000000000000006902000879
:1001A00000000000000000000000000069020008DC
:1001B0006902000869020008690200086902000873
:0401C00069020008C8
:1001C40010B5054C237833B9044B13B10448AFF38D
:1001D40000800123237010BD2C04002000000000C7
:1001E400E404000808B5034B1BB103490348AFF30B
:1001F400008008BD0000000030040020E404000872
:10020400034AD2F8883043F47003C2F88830704748
:1002140000ED00E0DFF834D00D480E490E4A00230B
:1002240002E0D458C4500433C4188C42F9D30B4AA6
:100234000B4C002301E013600432A242FBD3FFF70E
:10024400DFFF00F0B9F800F00EF87047000002205C
:10025400000000202C0400200C0500082C040020C1
:100264004C040020FEE708B500F058F8FFF7C8FF7B
:1002740000F020F8642000F003F84FF47A70FAE7F5
:100284004FF0E0224FF47A535361002393611169D4
:1002940041F005011161834206DB4FF0E02213694E
:1002A40023F00103136170471169C903FCD50133BD
:1002B400F1E70000164A136B43F001031363154B77
:1002C400196821F010011960196841F020011960C2
:1002D400196A41F480711962196A41F40071196252
:1002E400196A41F480611962196A21F40061196282
:1002F400136C43F400331364074B45229A60DA68A5
:1003040042F00802DA60DA6842F40052DA607047B8
:10031400003802400000024000440040254B1A6BA4
:1003240042F003021A635A6C42F480525A64A3F5F1
:1003340060531A6822F47C421A601A6842F4284214
:100344001A601A6AC2F313021A621A6A42F0AA42C3
:1003540042F4A0021A621A6822F440721A601A68FF
:1003640042F480721A6010229A61D3F8002422F0B9
:100374000302C3F80024D3F8002442F00102C3F8B6
:1003840000240122C3F81824A3F5504300221A6064
:100394001A6842F004021A601A6842F008021A60ED
:1003A4001A6842F440721A601A6842F040021A60F5
:1003B400704700BF0038024070B50D4E0D4D761BDE
:1003C400B61006D0002455F8043B01349847A642E1
:1003D400F9D1094E094D761B00F082F8B61006D00B
:1003E400002455F8043B01349847A642F9D170BD66
:1003F40000050008000500080805000800050008BD
:10040400024B13B1024800F005B870470000000029
:1004140025040008002301461A46184600F01AB8BD
:1004240038B5084B084D5B1B9C1007D0043B1D449A
:10043400013C55F804399847002CF9D1BDE83840FF
:1004440000F054B80C05000808050008704700BF08
:10045400704700BF2DE9F047DFF880A00646DAF8C0
:10046400000098460F469146FFF7F0FF1A4B1B68B1
:10047400D3F8484124B365681F2D26DC5EB96B1C94
:100484000235DAF80000636044F82570FFF7E0FFF6
:100494000020BDE8F08704EB85010123C1F88890B2
:1004A400D4F88821AB401A43022EC4F88821C1F83D
:1004B4000881E4D1D4F88C211343C4F88C31DEE7ED
:1004C40003F5A674C3F84841D5E7DAF80000FFF74E
:1004D400BFFF4FF0FF30DCE7FC04000828040020D5
:1004E400F8B500BFF8BC08BC9E467047F8B500BF1D
:0804F400F8BC08BC9E467047ED
:0404FC0000000020DC
:0805000005040008E9010008F0
:04050800C501000821
:10050C0000000000EC02002054030020BC0300207B
:10051C0000000000000000000000000000000000CF
:10052C0000000000000000000000000000000000BF
:10053C0000000000000000000000000000000000AF
:10054C00000000000000000000000000000000009F
:10055C00000000000000000000000000000000008F
:10056C00000000000000000000000000000000007F
:10057C00000000000000000000000000000000006F
:10058C00000000000000000000000000000000005F
:10059C00000000000000000000000000000000004F
:1005AC00000000000000000001000000000000003E
:1005BC000E33CDAB34126DE6ECDE05000B00000003
:1005CC00000000000000000000000000000000001F
:1005DC00000000000000000000000000000000000F
:1005EC0000000000000000000000000000000000FF
:1005FC0000000000000000000000000000000000EF
:0C092C0000000000000000004804002053
:0400000508000219D4
:00000001FF
